:100629000227000002250000012900042A00000019
:1006390000C1000A2EC0F9A4B0999282F8809004F2
:0B06490021FEFDFBF70438000000005C
:1006A0007C64EF4E60131CEC60087D0A1DED60F663
:0906B00080FAEF1F70EC1E80E9D6
:0106B900221E
:10067F0074382529F8E6F58074212529F8E6F5A0C8
:10068F000529C3E5299404748094804003E4F52977
:01069F002238
:10037000AF8CEFFEAD8A7C00E42DF528EC3EF5272E
:10038000E4F58CF58AAC27AD281201C97B297A5C8B
:1003900079EF783F12001EE4FBFA792078411201D0
:1003A000271202028F2D8E2C8D2B8C2AE47F887EC3
:1003B00013FDFCAB2DAA2CA92BA82AC312035F5056
:1003C00010E47F1EFEFDFCA82A12035F40033000EC
:1003D00010C200753CDF753BDF7539DF7538DF8093
:1003E00075E47BE87A03F9F8AF2DAE2CAD2BAC2A7F
:1003F0001202BF742E2FF8E6F538E47B64FAF9F8A0
:10040000AF2DAE2CAD2BAC2A1202BFE47B0AFAF959
:10041000F81202BF742E2BF8E6F539E47B0AFAF9DC
:10042000F8AF2DAE2CAD2BAC2A1202BFE47B0AFA3A
:10043000F9F81202BF742E2BF8E6547FF53AE47BEC
:100440000AFAF9F8AF2DAE2CAD2BAC2A1202BF740C
:100450002E2BF8E6F53BE47F207E03FDFCAB2DAAB6
:100460002CA92BA82AD312035F4003D29022AF2DD0
:10047000AE2CAD2BAC2AE47B2C7A01F9F8C3120325
:100480005F400302053BE47F207E03FDFCAB2DAA09
:100490002CA92BA82A12035F400302053BAF2DAE07
:1004A0002CAD2BAC2AE47BF47A01F9F8C312035F7C
:1004B000502DE47F207E03FDFCAB2DAA2CA92BA898
:1004C0002A12035F5019E52D24D4FFE52C34FEFEDB
:1004D000E52B34FFFDE52A34FFFCE47B058040AFCB
:1004E0002DAE2CAD2BAC2AE47B2C7A01F9F8C3128B
:1004F000035F5035E47FF47E01FDFCAB2DAA2CA9EF
:100500002BA82A12035F5021E52D24D4FFE52C34BB
:10051000FEFEE52B34FFFDE52A34FFFCE47B0AFAFE
:10052000F9F81202BF8E088F09C2907F327E001246
:1005300006A0D290AF09AE080206A0E47F2C7E018F
:10054000FDFCAB2DAA2CA92BA82AD312035F5002C5
:02055000C29057
:010552002286
:03000B00020003ED
:03000300D20032F6
:03001B000205DFFC
:0D05DF00C0E0C0D075D000C000C006C0074D
:1005EC007F147E00758DF8758B3012067F0526E51D
:1005FC002670020525C39464E525940040147525E6
:10060C0000752600D2B200EF1F70011E144E70F759
:02061C00C2B268
:0B061E00D007D006D000D0D0D0E032D2
:10065500D290758911E4F58CF58A758DF8758B3016
:10066500D2A9D2ABD28ED2AF12067F30B3FDD28CD7
:0A06750020B3FDC28C12037080EE6A
:10001E00EC4D6011E8497017ED33EC3304600DE4DC
:10002E00FCFFFEFD22E933E8330470F802026E1283
:10003E00023958046009E4CC248150062850090284
:10004E000278284003020275C0E0EB4A7044B98082
:10005E0006D0E0FB020264EF4E701CBD8008EBFF81
:10006E00EAFEE9FD80EBE98DF0A4FEE5F002010762
:10007E00E9CDF9EAFEEBFFEF89F0A4FCE5F0CE89BD
:10008E00F0A42EFFE435F0CD89F0A42DFEE435F07A
:10009E008067EF4E7005BD80D780C3EF8BF0A4ACA8
:1000AE00F0EE8BF0A42CFCE435F0F8EF8AF0A42CE3
:1000BE00E5F038FCE433CB8DF0A42CFCE5F03BF8F6
:1000CE00EE8AF0A42CFCE5F038F8E433CF89F0A4E6
:1000DE002CFCE5F038CF3400CE89F0A42FFFE5F0EC
:1000EE003EFEE433C98DF0A42EFEE5F039CD8AF044
:1000FE00A42FFFE5F03EFEE43DFD33D0E0FB5007BC
:10010E000BBB000F020278EC2CFCEF33FFEE33FE3C
:06011E00ED33FD0202506A
:10012400020278EC5D046005E85904700302026E73
:10013400120239580460F6EC4860F2EC7004FDFEDB
:10014400FF22C860DB2481C85009C39860025006AE
:100154000202759850CAF582E9294B4A7005AB82B0
:1001640002026475F0007C1A7880C3EF9BEE9AED6E
:1001740099400DC3EF9BFFEE9AFEED99FDE842F026
:10018400DC23ACF0D0E0FFD0E0FED0E0FDAB822079
:10019400E7101BEB60BAEC2CFCEF33FFEE33FEED03
:1001A40033FD020250E803F830E705C0F075F000B3
:1001B400EF2FFFEE33FEED33FD40B830E7C280AAE7
:1001C40075F020800E75F010800575F0087D007EB6
:1001D400007F003392D530D503120351EC33401025
:1001E400EF33FFEE33FEED33FDEC33FCD5F0ED22BF
:0E01F400E5F0247EA2D513CC92E7CDCEFF22FB
:10020200EDD2E7CD33EC3392D524814006E4FFFEF4
:10021200FDFC22FCE4CFCECDCC24E0501174FF8053
:10022200EDC3CC13CCCD13CDCE13CECF13CF0470F0
:07023200F030D5DE0203519C
:10023900E9D2E7C933E833F892D5EDD2E7CD33EC0B
:0702490033FC5002B2D52284
:10025000EC30E7100FBF000C0EBE00080DBD00040F
:100260000BEB6014A2D5EB13FCED92E7FD2274FFBB
:10027000FCFDFEFF22E480F8A2D574FF13FC7D8014
:03028000E480EF28
:03000000020553A3
:0C055300787FE4F6D8FD75813B02059A24
:1002830075F008758200EF2FFFEE33FECD33CDCC32
:1002930033CCC58233C5829BED9AEC99E5829840B5
:1002A3000CF582EE9BFEED9AFDEC99FC0FD5F0D692
:1002B300E4CEFBE4CDFAE4CCF9A88222B800C1B9BC
:1002C3000059BA002DEC8BF084CFCECDFCE5F0CBFA
:1002D300F97818EF2FFFEE33FEED33FDEC33FCEB33
:1002E30033FB10D703994004EB99FB0FD8E5E4F9EE
:1002F300FA227818EF2FFFEE33FEED33FDEC33FCDB
:10030300C933C910D7059BE99A4007EC9BFCE99ACE
:10031300F90FD8E0E4C9FAE4CCFB2275F010EF2F13
:10032300FFEE33FEED33FDCC33CCC833C810D70713
:100333009BEC9AE899400AED9BFDEC9AFCE899F84E
:0E0343000FD5F0DAE4CDFBE4CCFAE4C8F922E1
:0E035100C3E49FFFE49EFEE49DFDE49CFC22BD
:10035F00EB9FF5F0EA9E42F0E99D42F0E89C45F0F4
:01036F00226B
:10055F00020655E493A3F8E493A34003F68001F257
:10056F0008DFF48029E493A3F85407240CC8C3339D
:10057F00C4540F4420C8834004F456800146F6DF6C
:10058F00E4800B0102040810204080900629E47ECD
:10059F00019360BCA3FF543F30E509541FFEE49361
:1005AF00A360010ECF54C025E060A840B8E493A328
:1005BF00FAE493A3F8E493A3C8C582C8CAC583CA53
:1005CF00F0A3C8C582C8CAC583CADFE9DEE780BE0B
:0106540000A5
:00000001FF
